:020000040800F2
:10000000000003206D05000845260008532600085F
:10001000592600085F260008652600080000000039
:100020000000000000000000000000006B26000837
:1000300079260008000000008726000895260008A1
:10004000C1050008C1050008C1050008A126000877
:10005000C1050008C10500082F2700083D2700083A
:10006000C1050008C105000821270008C1050008D6
:10007000C1050008C1050008AD260008C10500083B
:10008000C1050008C1050008C1050008C105000838
:10009000C1050008C1050008C1050008C105000828
:1000A000C1050008C1050008C1050008C105000818
:1000B000C1050008C1050008C1050008C105000808
:1000C000C1050008C1050008C1050008C1050008F8
:1000D000C1260008D5260008C1050008C105000892
:1000E000C1050008C1050008C1050008C1050008D8
:1000F000E9260008F526000801270008C1050008C8
:10010000C1050008C1050008C1050008C1050008B7
:10011000C1050008C1050008C1050008C1050008A7
:10012000C1050008C10500080D270008C105000829
:0C013000C1050008C1050008C105000859
:1001400010B5054C237833B9044B13B10448AFF311
:1001500000800123237010BDE40000200000000097
:10016000E0C4000808B5034B1BB103490348AFF3D3
:10017000008008BD00000000E8000020E0C4000886
:1001800010F8012B11F8013B012A28BF9A42F7D041
:10019000D01A7047034613F8012B002AFBD1181A16
:1001A000013870470000000000000000000000005F
:1001B00001F0FF01102A2BDB10F0070F08D010F818
:1001C000013B013A8B422DD010F0070F42B3F6D11C
:1001D000F0B441EA012141EA014122F007047FF035
:1001E00000070023F0E80256083C85EA010586EA8C
:1001F000010685FA47F5A3FA87F586FA47F6A5FAC8
:1002000087F68EB9EED1F0BC01F0FF0102F00702D3
:1002100032B110F8013B013A83EA010313B1F8D17E
:100220000020704701387047002D06BF354603385F
:10023000073815F0010F07D1013015F4807F02BF98
:10024000013015F4C03F0130F0BC0138704700BFE9
:1002500053B94AB9002908BF00281CBF4FF0FF312D
:100260004FF0FF3000F074B9ADF1080C6DE904CE29
:1002700000F006F8DDF804E0DDE9022304B0704781
:100280002DE9F047089D04468E46002B4DD18A4249
:10029000944669D9B2FA82F252B101FA02F3C2F17C
:1002A000200120FA01F10CFA02FC41EA030E94400D
:1002B0004FEA1C48210CBEFBF8F61FFA8CF708FB2E
:1002C00016E341EA034306FB07F199420AD91CEB06
:1002D000030306F1FF3080F01F81994240F21C8138
:1002E000023E63445B1AA4B2B3FBF8F008FB103380
:1002F00044EA034400FB07F7A7420AD91CEB0404B5
:1003000000F1FF3380F00A81A74240F20781644484
:10031000023840EA0640E41B00261DB1D440002309
:10032000C5E900433146BDE8F0878B4209D9002D6D
:1003300000F0EF800026C5E9000130463146BDE8F7
:10034000F087B3FA83F6002E4AD18B4202D3824261
:1003500000F2F980841A61EB030301209E46002D10
:10036000E0D0C5E9004EDDE702B9FFDEB2FA82F265
:10037000002A40F09280A1EB0C014FEA1C471FFAC3
:100380008CFE0126200CB1FBF7F307FB131140EAAA
:1003900001410EFB03F0884208D91CEB010103F177
:1003A000FF3802D2884200F2CB804346091AA4B239
:1003B000B1FBF7F007FB101144EA01440EFB00FE0D
:1003C000A64508D91CEB040400F1FF3102D2A64572
:1003D00000F2BB800846A4EB0E0440EA03409CE711
:1003E000C6F12007B34022FA07FC4CEA030C20FABE
:1003F00007F401FA06F31C43F9404FEA1C4900FADE
:1004000006F3B1FBF9F8200C1FFA8CFE09FB18115A
:1004100040EA014108FB0EF0884202FA06F20BD9CD
:100420001CEB010108F1FF3A80F08880884240F21D
:100430008580A8F102086144091AA4B2B1FBF9F061
:1004400009FB101144EA014100FB0EFE8E4508D95C
:100450001CEB010100F1FF346CD28E456AD90238E1
:10046000614440EA0840A0FB0294A1EB0E01A142C6
:10047000C846A64656D353D05DB1B3EB080261EB34
:100480000E0101FA07F722FA06F3F1401F43C5E90E
:10049000007100263146BDE8F087C2F12003D84044
:1004A0000CFA02FC21FA03F3914001434FEA1C4786
:1004B0001FFA8CFEB3FBF7F007FB10360B0C43EA78
:1004C000064300FB0EF69E4204FA02F408D91CEB28
:1004D000030300F1FF382FD29E422DD90238634426
:1004E0009B1B89B2B3FBF7F607FB163341EA0341C6
:1004F00006FB0EF38B4208D91CEB010106F1FF3815
:1005000016D28B4214D9023E6144C91A46EA00460B
:1005100038E72E46284605E70646E3E61846F8E69D
:100520004B45A9D2B9EB020864EB0C0E0138A3E7E6
:100530004646EAE7204694E74046D1E7D0467BE7C7
:10054000023B614432E7304609E76444023842E73F
:10055000704700BFD458C4500433C4188C42F9D338
:100560007047036004308842FBD370470C488546CF
:1005700003F078F80B480C490C4A0023FFF7EDFF15
:100580000B480C490023FFF7EEFF0B480B490023F3
:10059000FFF7E9FF0AF066FF01F000FDFEE700004B
:1005A00000000320080000209800002014D100085B
:1005B000E400002074160020E4010320670A0320F1
:1005C000FEE7000080B483B000AF7860064BD3F83C
:1005D000902005497B681343C1F8903000BF0C3769
:1005E000BD465DF8047B70470008005880B485B0B4
:1005F00000AF78604FF0B043DA6C4FF0B0417B68E9
:100600001343CB644FF0B043DA6C7B681340FB605C
:10061000FB6800BF1437BD465DF8047B704780B4AB
:1006200085B000AF78604FF0B043D3F84C214FF065
:10063000B0417B681343C1F84C314FF0B043D3F85D
:100640004C217B681340FB60FB6800BF1437BD463C
:100650005DF8047B704780B500AF03F00BF903F041
:100660000FF94FF48030FFF7ADFF09F00FFF00F0F6
:1006700021F800F0C3F800BF80BD0000B0B588B01D
:1006800000AF0B4B3C1D1D460FCD0FC495E8070076
:1006900003C422800234130C237009F033FE3B1D87
:1006A000184609F05AF900BF2037BD46B0BD00BF5B
:1006B000F8C4000880B588B000AF3B1D00221A6066
:1006C0005A609A60DA601A610023BB8300237B833F
:1006D00000233B830023FB7738E0FB7F444ADB00A9
:1006E00013449B79002B2BD0FB7F414A52F83330C7
:1006F000404A93421BD03F4A934223D8B3F1904FD4
:1007000003D03D4A934209D01CE0FB7F384ADB000E
:1007100013449A88BB8B1343BB8314E0FB7F344A9A
:10072000DB0013449A887B8B13437B830BE0FB7FB6
:100730002F4ADB0013449A883B8B13433B8302E030
:1007400000BF00E000BFFB7F0133FB77FB7F252B61
:10075000C3D90023FB600123BB6003233B61BB8B38
:10076000002B14D0BB8B7B600120FFF73FFF0120E3
:10077000FFF755FF3B1D19464FF0904003F024FF53
:10078000BB8B002219464FF0904004F08DF87B8B14
:10079000002B12D07B8B7B600220FFF727FF02200B
:1007A000FFF73DFF3B1D1946134803F00DFF7B8B00
:1007B00000221946104804F077F83B8B002B13D029
:1007C0003B8B7B600420FFF711FF0420FFF727FF1E
:1007D0003B1D1946074803F0F7FE3B8B00221946E4
:1007E000044804F061F800BF00BF2037BD4680BD5B
:1007F00028CE0008000800480004004880B400AF7C
:1008000000BFBD465DF8047B704780B500AF01F0C6
:100810006FFC00BF80BD80B584B000AFF8600B46B0
:100820007A607B817A897B68F968002001F0ECFAB4
:1008300000BF1037BD4680BD80B483B000AF786084
:10084000074BD3F8803023F0070205497B68134338
:10085000C1F8803000BF0C37BD465DF8047B70479F
:100860000004005880B483B000AF7860064BD3F822
:10087000902005497B681343C1F8903000BF0C37C6
:10088000BD465DF8047B70470008005880B483B013
:1008900000AF78604FF0B0430A4AC3F89C204FF095
:1008A000B043D3F89C3023F47C527B681B024FF09A
:1008B000B0411343C1F89C3000BF0C37BD465DF812
:1008C000047B7047FECAFECA80B483B000AF786074
:1008D0004FF0B0439B6823F400424FF0B0417B6877
:1008E00013438B6000BF0C37BD465DF8047B704737
:1008F00080B400AF4FF0B043D3F890304FF0B04227
:1009000043F48033C2F8903000BFBD465DF8047BED
:10091000704780B400AF4FF0B043D3F890304FF041
:10092000B04223F48033C2F8903000BFBD465DF87A
:10093000047B704780B400AF4FF0B043D3F89430DD
:1009400003F08063B3F1806F01D1012300E0002345
:100950001846BD465DF8047B704780B400AF4FF089
:10096000B043D3F8943003F08053B3F1805F01D1EA
:10097000012300E000231846BD465DF8047B704764
:1009800080B485B000AF78604FF0B0431A6D4FF07F
:10099000B0417B6813430B654FF0B0431A6D7B6821
:1009A0001340FB60FB6800BF1437BD465DF8047B55
:1009B0007047000080B400AF044B1B68C3F30B0307
:1009C0001846BD465DF8047B704700BF002004E078
:1009D00080B400AF044B1B681B0C9BB21846BD468D
:1009E0005DF8047B704700BF002004E080B483B052
:1009F00000AF786039607B685A683B681B041A4313
:100A00007B685A6000BF0C37BD465DF8047B7047B9
:100A100080B483B000AF786039607B685A683B6807
:100A20001A437B685A6000BF0C37BD465DF8047BF3
:100A3000704780B483B000AF786039607B685A69D2
:100A40003B681B041A437B685A6100BF0C37BD46E4
:100A50005DF8047B704780B483B000AF7860396084
:100A60007B685A693B681A437B685A6100BF0C3740
:100A7000BD465DF8047B704780B483B000AF7860FA
:100A800039607B683A689A6000BF0C37BD465DF8F4
:100A9000047B704780B483B000AF786039607B68B6
:100AA0003A689A6100BF0C37BD465DF8047B704719
:100AB00080B400AF054B1B69044A23F004031361A3
:100AC00000BFBD465DF8047B704700BF00ED00E04D
:100AD00080B483B000AF78607B68FF225A6200BFA9
:100AE0000C37BD465DF8047B704780B483B000AF1F
:100AF00078607B68CA225A627B6853225A6200BFC0
:100B00000C37BD465DF8047B704780B483B000AFFE
:100B1000786039607B689B6823F007023B681A4362
:100B20007B689A6000BF0C37BD465DF8047B704758
:100B300080B500AF044B4FF400421A6100F030F86A
:100B400000F070F800BF80BD0040005880B500AFD5
:100B500000F07CF800F094F80949002000F03EFF16
:100B6000FFF779FD0121012009F048FD00F0EAF9C5
:100B700000F0F8F900F086FA00F090F800BF80BDB0
:100B8000E004002080B400AF00BFBD465DF8047BE8
:100B9000704780B500AF5020FFF764FE00BF80BDF6
:100BA00080B500AF00F004F800F01AF800BF80BD77
:100BB00080B500AFFFF7BEFE0346002B0DD0FFF758
:100BC000CCFE0346002B08D103F048FF03F046FF9C
:100BD000FFF78EFEFFF79DFE00BF00BF80BD000047
:100BE00080B500AF4FF48010FFF7CAFE3F210C48DC
:100BF000FFF742FF3F210A48FFF74CFF3F2108481B
:100C0000FFF7F4FE3F210648FFF713FF3F2104489A
:100C1000FFF7FEFE3F210248FFF71DFF00BF80BD2A
:100C2000000C005880B582B000AF002009F0ACFC89
:100C300078607B68002B05D07B689B791846FFF7AE
:100C400025FE00BF00BF0837BD4680BD80B500AFA0
:100C5000FFF798FFFFF79DFF00F002F800BF80BD8F
:100C600080B500AF0548FFF740FF00210348FFF7BC
:100C70004CFF0248FFF72CFF00BF80BD002800405A
:100C800080B500AF4FF40040FFF71EFE09F0A4FC52
:100C90000420FFF7D1FD00BF80BD000080B588B003
:100CA00000AF09F079F9114A0021202009F0D2FDA6
:100CB0000F4B3B600F4B7B603B4619460E4808F0DC
:100CC00027FF0E4BBB600E4BFB600E4B3B6140F2AF
:100CD0003C537B6107F10803184609F09FFA09F0BD
:100CE00055F900BF2037BD4680BD00BF499B0008B5
:100CF00034070320090D0008210D00084C090320CA
:100D000040080320F801032080B483B000AF0346FD
:100D1000FB7100BF0C37BD465DF8047B70470000D7
:100D200080B588B000AF78607B685B680B33FB618F
:100D3000FB691B889BB2A3F51243072B60D801A265
:100D400052F823F0650D0008A70D0008B50D000846
:100D5000010E0008D10D0008E10D0008E90D0008A2
:100D6000F90D000807F10C03184608F023FE3B7B41
:100D700019467B7B1A46BB7B24480AF0ADFB3B7CC3
:100D8000194623480AF0A8FBBB7D1946FB7D1A468D
:100D90003B7E20480AF0A0FB1F480AF09DFB7868C4
:100DA00000F070F82DE01D480AF096FB786800F01E
:100DB00043F826E01A480AF015FCFB69023319686B
:100DC000FB6902335B681A4616480AF085FB18E097
:100DD000FB6902331B68194613480AF07DFB10E0DB
:100DE00012480AF079FB0CE0FB6902331B681946D4
:100DF0000F480AF071FB04E00E480AF06DFB00E0BA
:100E000000BF00BF2037BD4680BD00BF14C500082D
:100E100038C5000854C500086CC500088CC500081A
:100E2000B0C5000800C6000828C6000864C600084F
:100E300088C60008C4C6000880B584B000AF7860DA
:100E40007B685B680B33FB60FB680233BB60BB688D
:100E50001B78194608480AF03FFBBB681B78002B3B
:100E600003D106480AF0BEFB03E005480AF0BAFBCE
:100E700000BF1037BD4680BDE8C6000818C700088F
:100E800054C7000880B58AB000AF786007F1080346
:100E900000221A605A609A60DA6000237B620023A5
:100EA0003B627B685B680B33FB61FB690233BB61B0
:100EB000BB691B78002B28D11D480AF093FBFFF774
:100EC000DDFB0F233B727F23BB72FFF781FD78624E
:100ED000796A18480AF000FB7B6A9BB2BB82FFF775
:100EE00069FD3862396A14480AF0F6FA3B6A9BB227
:100EF000FB8207F10803184608F046FD01F0E6FC06
:100F00000021012009F07AFB0EE0BB691B78012B60
:100F100006D10A480AF0E0FA7B6800221A7003E062
:100F200007480AF0D9FA00BF2837BD4680BD00BF88
:100F30008CC70008A8C70008CCC70008ECC7000889
:100F400020C8000880B500AF002002F0C7FA0120D9
:100F500002F0C4FA022002F0C1FA012002F0F8FA0D
:100F600000BF80BD80B500AF0121002002F00AFB68
:100F70000121012002F006FB0121022002F002FB08
:100F800000BF80BD80B584B000AF786002F04EFC39
:100F9000B8607B68FB60FB68B3F1FF3F0AD002F0EA
:100FA0005DFC03461A46FB681344FB6002E0FFF752
:100FB0007FFD30BF02F03AFC0246BB68D31AFA68E4
:100FC0009A42F4D800BF00BF1037BD4680BD80B53F
:100FD00000AF4FF0FF3009F041FB00BF80BD80B48F
:100FE00000AF00BFBD465DF8047B704780B582B09E
:100FF00000AF786039604FF0FF3009F02FFB00BF81
:101000000837BD4680BD80B582B000AF7860002152
:10101000202009F041FC00BF0837BD4680BD80B5E7
:1010200082B000AF7860022009F0A2FC00BF083750
:10103000BD4680BD80B582B000AF7860022009F067
:10104000B7FC00BF0837BD4680BD80B582B000AF99
:101050000346FB80FB88102B06D0102B0DDC012BE8
:1010600005D0022B06D008E001F0B3FC06E001F049
:10107000B7FC03E001F0BBFC00E000BF00BF083795
:10108000BD4680BD80B500AF034B0122034900205F
:1010900000F096FE00BF80BDA110000808010020EE
:1010A00080B500AF154B1B88FF2B1ED8144B1B7847
:1010B0000D2B0FD1134914480AF00EFA00F028F84E
:1010C0000E4B00221A804FF4807200210D480AF066
:1010D000FBF90AE0094B1B885A1C91B2074A1180A0
:1010E0001A46074B1978074B9954084B01220449BB
:1010F000002000F065FE00BF80BD00BF1002002090
:10110000080100201001002054C80008A1100008A8
:1011100080B500AF1C491D48FFF732F80346002B8D
:1011200009D11B480AF05EFA1A4B1B4A1A6019488B
:1011300003F0B8F826E019491448FFF721F80346F0
:10114000002B0AD116480AF04DFA124B4FF0B0525C
:101150001A60104803F0A6F814E012490B48FFF794
:101160000FF80346002B09D10F480AF03BFA094B50
:101170000E4A1A60074803F095F803E003490C484B
:101180000AF0AAF900BF80BD64C800081001002061
:1011900068C80008000100200400001670C800089C
:1011A00074C800087CC8000880C800080100001648
:1011B00088C8000880B483B000AF7860064BD3F8CD
:1011C000802005497B681343C1F8803000BF0C378D
:1011D000BD465DF8047B70470008005880B483B0BA
:1011E00000AF7860054B1A6804497B6813430B60B5
:1011F00000BF0C37BD465DF8047B704700080058FF
:1012000080B483B000AF0D4B9B6A9BB27B600B4BED
:101210009B6A9BB23B6005E03B687B60074B9B6A27
:101220009BB23B607A683B689A42F5D13B681846AE
:101230000C37BD465DF8047B704700BF00280040B6
:1012400080B485B000AF03460A46FB711346BB71FC
:10125000BA791D4913465B001344DB000B44153378
:101260001B78FB73FB7B062B09D0FA7B16491346D0
:101270005B001344DB000B441433FA791A70FA79DB
:10128000114913465B001344DB000B441533FA7B12
:101290001A70FA790C4913465B001344DB000B44C7
:1012A0001433BA791A70BA79074913465B001344AC
:1012B000DB000B441533FA791A7000BF1437BD46B2
:1012C0005DF8047B704700BF1402002080B485B035
:1012D00000AF03460A46FB711346BB71294B1B78CE
:1012E000DBB2BA799A4232D0BA79274913465B0009
:1012F0001344DB000B4414331B78FB73FA7B224945
:1013000013465B001344DB000B441533FA791A7063
:10131000FA791D4913465B001344DB000B44153377
:10132000BA791A70FA79184913465B001344DB0046
:101330000B441433FA7B1A70BA79134913465B00D5
:101340001344DB000B441433FA791A7014E0FA7971
:101350000D4913465B001344DB000B441533BA7987
:101360001A70BA79084913465B001344DB000B443A
:101370001433FA791A7000BF1437BD465DF8047B48
:10138000704700BFA40200201402002080B584B082
:1013900000AF0346FB714E4B1B78DBB2062B18D116
:1013A0004B4B1B78DAB24B4B1A70494AFB791370DE
:1013B000FA79494913465B001344DB000B441533AB
:1013C00006221A70454B4FF0FF321A600023FB8152
:1013D00078E000F009F90346FB81FA793E491346AB
:1013E0005B001344DB000B4408331968FB89FA796E
:1013F0001944394813465B001344DB0003440833A7
:101400001960FA79344913465B001344DB000B443E
:1014100008331B68BB602E4B1B78DBB219462E4A83
:101420000B465B000B44DB00134408331B68BA68AF
:101430009A4237D3264B1B787B737A7B2649134617
:101440005B001344DB000B4415331B783B7313E044
:101450007A7B214913465B001344DB000B441533B0
:101460001B787B737A7B1C4913465B001344DB00BB
:101470000B4415331B783B733B7B062B0BD03A7B1D
:10148000154913465B001344DB000B4408331B680B
:10149000BA689A42DCD27A7BFB7911461846FFF78C
:1014A000CFFE0FE00A4B1B78DAB2FB7911461846E3
:1014B000FFF70CFF064B1B78DAB2064B1A70044A92
:1014C000FB791370FB8918461037BD4680BD00BFFD
:1014D000A4020020A502002014020020A80200207F
:1014E00080B485B000AF03460A46FB711346BB715A
:1014F000394B1B78DBB2FA799A4211D1364B1B7803
:10150000DAB2364B1A70FA79354913465B00134448
:10151000DB000B4415331B78DAB22F4B1A703EE018
:10152000FA792F4913465B001344DB000B44143354
:101530001B78FB73FA792A4913465B001344DB00DE
:101540000B4415331B78BB73F979FA7B24480B469F
:101550005B000B44DB00034415331B78D8B22049F1
:1015600013465B001344DB000B44153302461A702C
:10157000BB7B062B13D0F979BA7B19480B465B006D
:101580000B44DB00034414331B78D8B214491346D0
:101590005B001344DB000B44143302461A70FA79E3
:1015A0000F4913465B001344DB000B440C3301224C
:1015B0001A70094B1B78DBB2062B07D1BB79002BC5
:1015C00004D1084B4FF0FF321A6000BF00BF143740
:1015D000BD465DF8047B7047A4020020A5020020F0
:1015E00014020020A802002080B582B000AF1A4B80
:1015F0001B68B3F1FF3F26D0FFF702FE7860164B61
:101600001B687A689A4205D8134B1A687B68D31A0C
:101610007B600AE0114B1B881A467B68D31A3B603B
:101620000D4B1B683A6813447B600D4B1B781A46C0
:101630007B6802FB03F37B600A4B1B781A467B68CE
:10164000D3407B6001E000237B607B689BB218463F
:101650000837BD4680BD00BFA8020020B0020020B0
:10166000AE020020AD02002080B582B000AF03467C
:10167000FB80FB88002B08D1FFF7C2FD0346214AFF
:101680001360032002F07FFA39E0FB88012B03D8B6
:101690001D4B1B78012B02D0FB88013BFB8000BF58
:1016A0001A4B1B68DB6803F00403002BF8D0174BC0
:1016B0001B68DB68DAB2154B1B6862F49062DA6073
:1016C000134B4FF40022DA60032002F06AFA114B48
:1016D0005B691B0C1B04FA880E4913434B61FFF72F
:1016E0008FFD0346074A1360084B1B689A68074B37
:1016F0001B6842F480629A60AFF3008000BF083735
:10170000BD4680BDA8020020AD020020E0040020FC
:10171000000800580028004080B584B000AF454B59
:101720009B6803F48063B3F5806F07D100BF424B21
:101730001B68DB6803F00403002BF8D13E4B1B68E9
:101740009A683D4B1B6822F480629A603B4B1B7881
:10175000FB73FA7B3A4913465B001344DB000B44EE
:1017600008331B68BB60FFF73FFF0346FB80FB8825
:10177000BA689A4205D20023BB81324B01221A700B
:101780004DE0FB88304A128892B213441A46BB6877
:10179000934206D92C4B1B88BB812A4B00221A701E
:1017A0003DE0BB689AB2FB88D31ABB81254B01226E
:1017B0001A7034E0FA7B224913465B001344DB00C5
:1017C0000B4408331A68FB889A420AD2FA7B1C49F8
:1017D00013465B001344DB000B44083300221A60FD
:1017E00013E0FA7B164913465B001344DB000B44FD
:1017F00008331968FB88FA7BC91A114813465B0045
:101800001344DB00034408331960FA7B0C49134688
:101810005B001344DB000B4415331B78FB73FB7B2D
:10182000062BC7D1BB891846FFF71EFF00BF103734
:10183000BD4680BD00280040E0040020A402002036
:1018400014020020AC020020B202002080B58AB051
:1018500000AFEFF310837B617B697B6272B600BFE0
:10186000594B1B68CA225A62574B1B6853225A6253
:10187000554B1B689A68544B1B6822F480629A602F
:10188000524B1B7887F8233097F823205049134692
:101890005B001344DB000B440C331B78DBB2022BE0
:1018A0006ED197F823204A4913465B001344DB00AE
:1018B0000B441B68FB6197F82320454913465B00E6
:1018C0001344DB000B4410331B68BB61414B1B7896
:1018D000DBB2002B4CD097F823203D4913465B0028
:1018E0001344DB000B440D331B78DBB2012B24D1F6
:1018F00097F8233001211846FFF7F2FD7B6A3B6120
:101900003B6983F3108800BF97F8232030491346C2
:101910005B001344DB000B4404331A6897F8233050
:101920001146184600F0B8F9274B1B68CA225A62C4
:10193000254B1B6853225A6212E07B6AFB60FB68EE
:1019400083F3108800BF97F82330184600F020F981
:101950001D4B1B68CA225A621B4B1B6853225A62DA
:1019600097F82330FA691946B86900F01BFA22E0AB
:10197000FFF7D2FE7B6ABB60BB6883F310881AE076
:1019800000BF114B1B68DB6803F00403002BF8D089
:101990000D4B1B68DB68DAB20B4B1B6862F490627C
:1019A000DA600D4B4FF40022DA607B6A7B607B6863
:1019B00083F3108800BF044B1B68FF225A6200BFEC
:1019C0002837BD4680BD00BFE0040020A4020020EF
:1019D00014020020AC0200200008005880B588B036
:1019E00000AF03463960FB715E4B1B68CA225A6226
:1019F0005C4B1B6853225A625B4B9B685A4A43F00C
:101A000020039360584B9B68DBB203F00703DBB203
:101A1000C3F10403DAB2554B1A70534B1B6903F43C
:101A2000FE034FF4FE023A613A6992FAA2F2FA60BA
:101A3000FA687A617A69002A01D1202203E07A6982
:101A4000B2FA82F2D2B2D340DBB20133DAB2484BFF
:101A50001A70454B1B699BB2C3F30E039BB2013353
:101A60009AB2444B1A80434B1B88013B404A127880
:101A700002FB03F3A3F5A0733C4A1278D340BB6189
:101A8000BB694FF6FE72934204D93B4B4FF6FF728F
:101A90001A8003E0BB699AB2374B1A804FF40020DA
:101AA000FFF79CFB4FF40020FFF784FBFB79002B32
:101AB0003DD1324B01221A70314B4FF0FF321A6088
:101AC0000023FB770CE0FA7F2E4913465B0013449A
:101AD000DB000B440C3300221A70FB7F0133FB77D1
:101AE000FB7F052BEFD9284B06221A701D4B1B6874
:101AF0009A681C4B1B6822F480629A60194B1B6821
:101B0000DB68DAB2174B1B6862F49062DA601F4B35
:101B10004FF40022DA60032002F043F8114B1B68F7
:101B20009A68104B1B6842F480429A6009E00D4BA2
:101B30001B68DB6803F48063002B02D0032002F0F3
:101B400022F8084B1B68FF225A620022032103205F
:101B500001F0D7FF032001F0EEFF00BF2037BD46A4
:101B600080BD00BFE004002000280040AD0200203E
:101B7000AE020020B0020020B2020020AC02002021
:101B8000A802002014020020A4020020000800582F
:101B900080B586B000AF0346FB71EFF31083FB60A6
:101BA000FB687B6172B600BF032001F0D2FF344BAB
:101BB0001B68CA225A62324B1B6853225A62FA7956
:101BC000304913465B001344DB000B440C331B7895
:101BD000DBB2022B42D1FB7900211846FFF780FCD3
:101BE000294B1B78FB74FB7C062B2FD1274B9B6862
:101BF00003F48063B3F5806F07D100BF204B1B68EF
:101C0000DB6803F00403002BF8D11D4B1B689A68B6
:101C10001B4B1B6822F480629A6000BF184B1B6844
:101C2000DB6803F00403002BF8D0154B1B68DB685E
:101C3000DAB2134B1B6862F49062DA60144B4FF413
:101C40000022DA60032001F0ACFF07E0114B1B78A3
:101C5000DBB2FA7C9A4201D0FFF75EFD084B1B68AD
:101C6000FF225A62032001F066FF7B69BB60BB68FC
:101C700083F3108800BF00BF1837BD4680BD00BF8A
:101C8000E004002014020020A402002000280040EC
:101C900000080058A502002080B586B000AF0346BA
:101CA0003960FB71FA793B4913465B001344DB0052
:101CB0000B440C331B78DBB2022B03D1FB791846A3
:101CC000FFF766FFEFF31083FB60FB687B6172B682
:101CD00000BF032001F03DFF2F4B1B68CA225A6250
:101CE0002D4B1B6853225A62FA792A4913465B002E
:101CF0001344DB000B440C3302221A70FA79254995
:101D000013465B001344DB000B4408333A681A6047
:101D1000FA79204913465B001344DB000B4404337B
:101D20003A681A60FB791846FFF730FB03467B825E
:101D30001A4B1B787B741A4B1B78DBB27A7C9A4265
:101D400002D0FFF7E9FC13E0FA79124913465B0071
:101D50001344DB000B44083319687B8AFA79C91AEB
:101D60000C4813465B001344DB000344083319603E
:101D7000094B1B68FF225A62032001F0DCFE7B69DD
:101D8000BB60BB6883F3108800BF00BF1837BD4637
:101D900080BD00BF14020020E0040020A402002047
:101DA000A502002080B584B000AFF8600B467A60D1
:101DB000FB727B68984700BF1037BD4680BD0000AE
:101DC00080B584B000AFB9607B600346FB731346F7
:101DD000BB81FB7B002B0CD1084A7B681360084B4E
:101DE000084A1A60BB891A46B968054804F064FEBF
:101DF00000E000BF00BF1037BD4680BDB402002028
:101E00008C0300200038014080B586B000AFB96077
:101E10007B600346FB731346BB810023FB750023E5
:101E2000BB75FB7B002B0ED1174A7B681360174BE9
:101E3000174A1A60BB891A46B968144804F088FE2C
:101E40000346FB7500E000BFFB7D032B16D801A203
:101E500052F823F0651E00086B1E0008711E000872
:101E6000771E00080023BB7509E00123BB7506E05F
:101E70000223BB7503E00323BB7500E000BFBB7DFD
:101E800018461837BD4680BDB80200208C030020DC
:101E90000038014080B582B000AF78607B681B6875
:101EA0001A46094B9A4207D1084B1B68002B05D0F4
:101EB000064B1B68984701E000BF00E000BF00BF71
:101EC0000837BD4680BD00BF00380140B402002085
:101ED00080B582B000AF78607B681B681A46094BFA
:101EE0009A4207D1084B1B68002B05D0064B1B6894
:101EF000984701E000BF00E000BF00BF0837BD46C3
:101F000080BD00BF00380140B802002080B483B01B
:101F100000AF78604FF0B043D3F8903023F0180250
:101F20004FF0B0417B681343C1F8903000BF0C37CD
:101F3000BD465DF8047B704780B485B000AF786023
:101F40004FF0B0439A6C4FF0B0417B6813438B6401
:101F50004FF0B0439A6C7B681340FB60FB6800BF96
:101F60001437BD465DF8047B704780B485B000AF80
:101F700078604FF0B043DA6C4FF0B0417B681343A8
:101F8000CB644FF0B043DA6C7B681340FB60FB68B6
:101F900000BF1437BD465DF8047B704780B500AFC5
:101FA00001F0D6FBFEF7C4FD00F012F800F06CF86B
:101FB00000F08AF800F043F900F024F900F0EEF8A0
:101FC00000F0E4F8FEF7C2FDFFF701F8FCE70000BF
:101FD00080B59AB000AF07F12003482200211846CF
:101FE00009F072FA3B1D00221A605A609A60DA60AA
:101FF0001A615A619A6102F031FD0020FFF786FFF5
:10200000204B1B6823F4C0631E4A43F40073136023
:102010001C4B1B6803F4C0633B603B6807233B62B7
:102020004FF480337B620123BB624FF48073FB6209
:1020300040233B630023FB6407F12003184603F0B1
:10204000A1F80346002B01D000F006F96F237B6056
:102050000223BB600023FB6000233B6100237B6104
:102060000023BB610023FB613B1D0121184603F0E7
:10207000FDFB0346002B01D000F0EEF800BF6837EF
:10208000BD4680BD0004005880B594B000AF3B460B
:1020900050220021184609F017FA4FF440533B60D4
:1020A0004FF480437B640223BB641023FB643B46F4
:1020B000184604F018F80346002B01D000F0CCF8C5
:1020C00000BF5037BD4680BD80B500AF064B074A04
:1020D0001A60054802F03CFC0346002B01D000F0DA
:1020E000BBF800BF80BD00BFBC020020000C005840
:1020F00080B500AF234B244A1A60224B4FF4E132E3
:102100005A60204B00229A601E4B0022DA601D4B61
:1021100000221A611B4B0C225A611A4B00229A6151
:10212000184B4FF40042DA61164B00221A62154B2D
:1021300000225A62134B00229A62124804F06CFC8F
:102140000346002B01D000F087F800210D4806F06F
:10215000B8FC0346002B01D000F07EF800210948AE
:1021600006F0EDFC0346002B01D000F075F80548A1
:1021700006F06EFC0346002B01D000F06DF800BFA6
:1021800080BD00BF8C0300200038014080B400AF48
:1021900000BFBD465DF8047B7047000080B500AF0E
:1021A000164B174A1A60154B00225A60134B0F2228
:1021B0009A60124B47F6FF72DA60104B00221A61E8
:1021C0000E4B00229A610D4B0022DA610B4B00226C
:1021D0005A610A4804F00EFA0346002B01D000F0C1
:1021E0003BF800220021054804F004FB0346002BC5
:1021F00001D000F031F800BF80BD00BFE004002036
:102200000028004080B500AF0420FFF795FE0120B4
:10221000FFF792FE0220FFF78FFE00220F210E2013
:1022200001F06FFC0E2001F086FC00220F213A2005
:1022300001F067FC3A2001F07EFC00BF80BD80B554
:1022400000AF0420FFF791FE0120FFF78EFE022071
:10225000FFF78BFE00BF80BD80B400AF00BFBD465E
:102260005DF8047B704780B400AF4FF0B043D3F803
:1022700090304FF0B04243F40043C2F8903000BFBA
:10228000BD465DF8047B704780B485B000AF7860D0
:102290004FF0B043DA6C4FF0B0417B681343CB642E
:1022A0004FF0B043DA6C7B681340FB60FB6800BF03
:1022B0001437BD465DF8047B704780B485B000AF2D
:1022C00078604FF0B0431A6D4FF0B0417B68134314
:1022D0000B654FF0B0431A6D7B681340FB60FB68E1
:1022E00000BF1437BD465DF8047B704780B485B0ED
:1022F00000AF78604FF0B0439A6D4FF0B0417B680B
:1023000013438B654FF0B0439A6D7B681340FB60BD
:10231000FB6800BF1437BD465DF8047B704780B48E
:1023200085B000AF78604FF0B043DA6D4FF0B04148
:102330007B681343CB654FF0B043DA6D7B68134085
:10234000FB60FB6800BF1437BD465DF8047B704737
:1023500080B485B000AF78604FF0B0431A6E4FF094
:10236000B0417B6813430B664FF0B0431A6E7B6835
:102370001340FB60FB6800BF1437BD465DF8047B6B
:10238000704780B500AF4FF40020FFF796FF0022A2
:1023900000212E2001F0B5FB2E2001F0CCFB00BF68
:1023A00080BD000080B582B000AF78607B681B689C
:1023B0000D4A934213D14FF48010FFF77EFF0022A5
:1023C00000212C2001F09DFB2C2001F0B4FB002209
:1023D00000212D2001F095FB2D2001F0ACFB00BF6A
:1023E0000837BD4680BD00BF000C005880B5A0B0C6
:1023F00000AF786007F16C0300221A605A609A609F
:10240000DA601A6107F10C0350220021184609F026
:102410005BF87B681B68684A93426ED10223FB60BD
:102420000023BB6207F10C03184603F05CFE034671
:10243000002B01D0FFF710FF0120FFF770FF0120F4
:10244000FFF722FF0C23FB6602233B6700237B6719
:102450000323BB670823FB6707F16C0319464FF0A2
:10246000904002F0B1F8554B554A1A60534B112277
:102470005A60524B10229A60504B0022DA604F4B48
:1024800080221A614D4B00225A614C4B00229A6106
:102490004A4B0022DA61494B00221A62474801F098
:1024A0008FFB0346002B01D0FFF7D6FE4FF0885379
:1024B000FB6500233B66002387F86430002387F820
:1024C00065300123BB6607F15C0319463B4801F008
:1024D000A9FE0346002B01D0FFF7BEFE7B68374AFA
:1024E000DA67364A7B68936200220021252001F0DA
:1024F00008FB252001F01FFB5AE07B681B68314A6E
:10250000934255D10123FB6000237B6207F10C034A
:10251000184603F0E8FD0346002B01D0FFF79CFEB0
:102520004FF48040FFF714FF0220FFF7ADFEC023F9
:10253000FB6602233B6701237B670323BB670723FB
:10254000FB6707F16C0319461F4802F03DF81F4B6B
:102550001F4A1A601D4B0F225A601C4B10229A60B2
:102560001A4B0022DA60194B80221A61174B0022A5
:102570005A61164B00229A61144B0022DA61134B08
:1025800000221A62114801F01BFB0346002B01D008
:10259000FFF762FE7B680D4ADA670C4A7B6893623C
:1025A00000220021242001F0ACFA242001F0C3FA1B
:1025B00000BF8037BD4680BD008000402004002061
:1025C000440002400038014000040048800400201C
:1025D0004404024080B596B000AF786007F108036C
:1025E00050220021184608F06FFF7B681B68144AD0
:1025F000934220D14FF40063BB604FF48073BB64FF
:1026000007F10803184603F06EFD0346002B01D0C6
:10261000FFF722FEFFF727FE4FF48060FFF766FE0C
:1026200000220021032001F06CFA032001F083FA5C
:10263000786804F09BF900BF5837BD4680BD00BFE5
:102640000028004080B400AF00BFBD465DF8047BA9
:10265000704780B400AFFEE780B400AFFEE780B4FF
:1026600000AFFEE780B400AFFEE780B400AF00BF6C
:10267000BD465DF8047B704780B400AF00BFBD4627
:102680005DF8047B704780B400AF00BFBD465DF8C5
:10269000047B704780B500AF01F0B4F800BF80BD87
:1026A00080B500AFFFF7D2F800BF80BD80B500AFA6
:1026B000024801F066FC00BF80BD00BF200400207E
:1026C00080B500AF024804F0C3FA00BF80BD00BF70
:1026D0008C03002080B500AF024804F0B9FA00BFB7
:1026E00080BD00BFF802002080B500AF00F098FD6B
:1026F00000BF80BD80B500AF00F0CAFD00BF80BD47
:1027000080B500AF02F000F900BF80BD80B500AF1A
:10271000024801F036FC00BF80BD00BF80040020ED
:1027200080B500AF102002F0D7F800BF80BD80B5A3
:1027300000AF012002F0D0F800BF80BD80B500AF2F
:10274000022002F0C9F800BF80BD80B586B000AF9E
:10275000F860B9607A6000237B610AE0AFF3008023
:102760000146BB685A1CBA60CAB21A707B69013351
:102770007B617A697B689A42F0DB7B681846183780
:10278000BD4680BD80B483B000AF78604FF0FF33AA
:1027900018460C37BD465DF8047B704780B483B0A3
:1027A00000AF786039603B684FF400525A600023F4
:1027B00018460C37BD465DF8047B704780B483B083
:1027C00000AF7860012318460C37BD465DF8047BE6
:1027D000704780B485B000AFF860B9607A600023BC
:1027E00018461437BD465DF8047B704780B586B047
:1027F00000AF7860144A154BD31A7B617B693B614B
:10280000134B1B68002B02D1114B124A1A60104B5C
:102810001A687B6813443A699A4207D208F01CFE92
:1028200003460C221A604FF0FF3309E0084B1B6887
:10283000FB60074B1A687B681344054A1360FB680A
:1028400018461837BD4680BD000003200010000068
:10285000040500207816002080B400AFBFF34F8F2E
:1028600000BF064BDB6803F4E0620449044B1343EA
:10287000CB60BFF34F8F00BF00BFFDE700ED00E06E
:102880000400FA0580B400AF034B1B681846BD4630
:102890005DF8047B704700BF8075FF1F80B400AFF8
:1028A000034B1B68DBB21846BD465DF8047B7047DE
:1028B0008475FF1F80B400AF034B1B681B0A1846CA
:1028C000BD465DF8047B70478475FF1FB0B590B0BE
:1028D00000AF204B3C1D1D460FCD0FC40FCD0FC4C4
:1028E0000FCD0FC495E8070003C4228000F086F8DE
:1028F0000121022007F082FE174A0021022007F082
:10290000A9FF3B1D184607F011F8034687F83F3032
:1029100097F83F30002B08D097F83F3019460F4802
:1029200008F0DAFDFFF798FC02E00D4808F0D4FD4E
:1029300000F07AF807F09EFA0A4A0021012007F019
:1029400089FF094808F0C8FD00F038FB00BF403798
:10295000BD46B0BD1CC90008F9950008A8C800080C
:10296000E0C80008612C000808C9000880B487B0DE
:1029700000AF78607B6801337B617B691B78FF2B3C
:102980000ED0FF2B19DC052B19D03E2B00D014E004
:102990007B690233FB60FB681B78012B00BF11E0F1
:1029A0007B6902333B613B691B889BB21A4640F24C
:1029B00007439A4205D100BF03E000BF02E000BF19
:1029C00000E000BF012318461C37BD465DF8047BBC
:1029D000704780B400AF00BFBD465DF8047B704710
:1029E00080B400AF00BFBD465DF8047B704780B483
:1029F00000AF00BFBD465DF8047B704780B582B074
:102A000000AF064B3B60064B7B603B4619460548D2
:102A100006F0D6FD00BF0837BD4680BD2800032064
:102A2000C92D0008912D0008B0B58AB004AF00236D
:102A30003B809223FB75734808F0D4FD06F033FD0C
:102A40000346FB75FB7D002B05D0FB7D19466E48C8
:102A500008F042FD02E06D4808F0C4FD00F032F9D4
:102A600038613A690621002006F031FC0346FB7507
:102A7000FB7D002B05D0FB7D1946654808F02CFD39
:102A800021E0644808F0AEFD3B6905331B78184629
:102A90003B6904331B781C463B6903331B781D4696
:102AA0003B6902331B781A463B6901331B78194690
:102AB0003B691B780293019100922B462246014606
:102AC000554808F009FD554A1021182006F0FFFB73
:102AD0000346FB75FB7D002B05D0FB7D1946504856
:102AE00008F0FAFC02E04F4808F07CFD4E4A102145
:102AF000082006F0ECFB0346FB75FB7D002B05D0A0
:102B0000FB7D1946494808F0E7FC02E0484808F018
:102B100069FD1821012006F05FFC0346FB75FB7D73
:102B2000002B05D0FB7D1946424808F0D5FC02E099
:102B3000414808F057FD06F0FCFA0346FB75FB7DA3
:102B4000002B05D0FB7D19463C4808F0C5FC02E08F
:102B50003B4808F047FD0023FB73FB7B43F0010378
:102B6000FB73FB7B002B35D0364BBB60BA1DF87B6B
:102B7000BB1C01933B1D009313460722002106F066
:102B800065F90346FB75FB7D002B05D0FB7D1946DF
:102B90002D4808F0A1FC02E02C4808F023FDFC8839
:102BA000BD88B868FDF7F6FA0346DAB2BB68009351
:102BB000134600222946204606F0E0FA0346FB753C
:102BC000FB7D002B03D0224808F00CFD02E02148D9
:102BD00008F008FDF88879883B460093022300221C
:102BE00006F0CCFA0346FB75FB7D002B03D01A4898
:102BF00008F0F8FC02E0194808F0F4FC00BF1837B0
:102C0000BD46B0BD58C9000884C90008B4C9000851
:102C1000D4C9000830CA00087CCA000860CF000888
:102C2000B8CA000810CB000870CF000858CB0008C5
:102C3000B0CB0008F8CB000838CC000868CC0008FE
:102C40009CCC0008C0CC0008C8CC0008F8CC000818
:102C500018CD00084CCD000880CD0008B4CD000888
:102C600080B584B000AF00233B60134B1B78002B72
:102C70001BD002237B60104B1B78BB600E4B1B7874
:102C8000072B02D10223FB6001E00123FB6001F06E
:102C90002BFB0A4B48F211021A613A463B1D1146C2
:102CA000184601F0CDFB01F041FB4FF00053044A00
:102CB0001A60FFF7D1FD00BF0E050020004000584C
:102CC0000106010080B586B000AFFFF7DBFD38617B
:102CD0003B69B3F1FF3F23D0FFF7ECFDB860FFF78E
:102CE000DDFD78603B69DAB2164B1A703B691B0A4E
:102CF000DAB2144B5A707B68DAB2124B9A70BB6826
:102D0000DAB2104BDA70BB681B0ADAB20D4B1A71DB
:102D1000BB681B0CDAB20B4B5A710A4B7B610BE0A0
:102D2000002007F031FCF860FB68002B02D0FB6844
:102D30007B6101E0044B7B617B6918461837BD4617
:102D400080BD00BF0805002058CF000880B582B0C4
:102D500000AF78600021022007F09EFD00BF083719
:102D6000BD4680BD80B582B000AF7860012007F01D
:102D7000FFFD00BF0837BD4680BD80B582B000AF03
:102D80007860012007F014FE00BF0837BD4680BD03
:102D900080B584B000AF78607B68FB60FB685B68DF
:102DA0000833184607F09EF80346FB72FB7A002BA7
:102DB00003D0FB6801221A7003E0FB6800221A703E
:102DC00000BF1037BD4680BD80B584B000AF03465C
:102DD000FB71FB79002B02D0012B06D00BE01F23E7
:102DE000FB60F86807F084FD05E01F23FB60F868CE
:102DF00007F09EFD00BF00BF1037BD4680BD00003C
:102E000080B594B008AF7860002387F82F307B68D6
:102E10001B881B01674A82FB03129210DB17D31A2F
:102E2000BB850021002006F062FBBA8DB98D00231E
:102E300006930023059300230493002303930023A8
:102E4000029300230193002300930023032005F045
:102E500003FF034687F82F3097F82F30002B02D05E
:102E600097F82F30A1E00A2006F00FF9034687F803
:102E70002F3097F82F30002B02D097F82F3094E0A6
:102E80001A233B74FF237B744C23BB740023FB7415
:102E900002233B7515237B757B685B681B78BB75CC
:102EA0007B685B685B78FB757B685B689B783B76CF
:102EB0007B685B68DB787B767B685B681B79BB76BD
:102EC0007B685B685B79FB767B685B689B793B77AB
:102ED0007B685B68DB797B777B685B681B7ABB7799
:102EE0007B685B685B7AFB777B685B689B7A87F8BB
:102EF00020307B685B68DB7A87F821307B685B6811
:102F00001B7B87F822307B685B685B7B87F823300C
:102F10007B685B689B7B87F824307B685B68DB7B26
:102F200087F825307B689B681B7887F826307B689C
:102F30009B685B7887F827307B68DB681B7887F8AD
:102F400028307B68DB685B7887F829307B681B7CDE
:102F500087F82A30184A07F10C03126811461980C5
:102F60000233120C1A7007F1100319461B2006F0E9
:102F70001AF8034687F82F3097F82F30002B02D02D
:102F800097F82F3011E007F10C031946032006F0E3
:102F90000AF8034687F82F3097F82F30002B02D01D
:102FA00097F82F3001E097F82F3018463037BD469C
:102FB00080BD00BF67666666E8CD000890B58DB03D
:102FC00000AF114B07F120040FCB84E80F004FF442
:102FD0008073BB834FF480733B834FF47A73BB8061
:102FE00007F12003BB6007F11C03FB6007F1180326
:102FF0003B61C1233B753B1D1846FFF701FF00BF36
:103000003437BD4690BD00BFECCD000880B400AFA2
:10301000054BDB68044A43F40043D36000BFBD4660
:103020005DF8047B704700BF0004005880B483B093
:1030300000AF7860064BD3F8D42005497B68134372
:10304000C1F8D43000BF0C37BD465DF8047B704733
:103050000008005880B483B000AF7860054B1A6A4E
:1030600004497B6813430B6200BF0C37BD465DF813
:10307000047B70470008005880B485B000AF7860CA
:103080004FF0B0431A6D4FF0B0417B6813430B65AE
:103090004FF0B0431A6D7B681340FB60FB6800BFC4
:1030A0001437BD465DF8047B704780B485B000AF2F
:1030B00078604FF0B043D3F850214FF0B0417B68B7
:1030C0001343C1F850314FF0B043D3F850217B681F
:1030D0001340FB60FB6800BF1437BD465DF8047BFE
:1030E000704780B483B000AF78607B681B6843F49E
:1030F00080327B681A6000BF0C37BD465DF8047BE8
:10310000704780B483B000AF78607B681B6843F081
:1031100001027B681A6000BF0C37BD465DF8047B76
:10312000704780B483B000AF786039607B685A68BC
:103130003B681B04DB431A407B685A6000BF0C37B6
:10314000BD465DF8047B704780B483B000AF786003
:1031500039607B685A683B681B041A437B685A6075
:1031600000BF0C37BD465DF8047B704780B483B068
:1031700000AF786039607B685A683B68DB431A406F
:103180007B685A6000BF0C37BD465DF8047B704712
:1031900080B483B000AF786039607B683A689A6029
:1031A00000BF0C37BD465DF8047B704780B483B028
:1031B00000AF786039603B681A047B689A6000BF92
:1031C0000C37BD465DF8047B704780B483B000AF18
:1031D000786039607B68DA683B6813403A689A42E5
:1031E00001D1012300E0002318460C37BD465DF8ED
:1031F000047B704780B483B000AF786039607B682F
:10320000DA693B6813403A689A4201D1012300E031
:10321000002318460C37BD465DF8047B704700005C
:1032200080B500AF02211948FFF7E4FF0346002BE9
:1032300009D0164B5B68DB4303F00203002B02D07E
:1032400000F0DAF81FE001211048FFF7D3FF034632
:10325000002B08D00D4B5B6803F00103002B02D15B
:1032600000F08EF80FE008210848FFF7C3FF03467F
:10327000002B09D0054B5B68DB4303F00803002BF0
:1032800002D000F005F900BF00BF80BD000C00585F
:1032900080B500AF02211A48FFF797FF0346002BC5
:1032A00009D1174B5B68DB4303F40033002B02D0DA
:1032B00000F096F820E008211148FFF786FF03464A
:1032C000002B09D10E4B5B68DB4303F40023002B7A
:1032D00002D000F0BFF80FE020210948FFF775FF8A
:1032E0000346002B09D1064B5B68DB4303F4001354
:1032F000002B02D000F050F800BF00BF80BD00BF1F
:10330000000C005880B500AF4FF48010FFF7CDFEE1
:103310004FF40070FFF79EFE4FF40070FFF786FE3B
:1033200040BF20BFFFF772FE00BF80BD80B500AF79
:103330004FF48010FFF7A0FE0648FFF7E2FE0548B5
:10334000FFF7CFFE2C2000F0F6FB2D2000F0F3FB62
:1033500000BF80BD000C005880B500AF01210248BD
:10336000FFF704FF00BF80BD000C005880B500AF20
:1033700001210248FFF71AFF00BF80BD000C005872
:1033800080B500AF06F092FE01210248FFF700FF72
:1033900000BF80BD000C005880B500AF202103485D
:1033A000FFF7D2FE06F0B2FE00BF80BD000C005851
:1033B00080B500AF02210248FFF7D8FE00BF80BDF4
:1033C000000C005880B500AF02210448FFF7EEFE64
:1033D00002210248FFF7A5FE00BF80BD000C005887
:1033E00080B500AF02210348FFF7AEFE06F0DEFE17
:1033F00000BF80BD000C005880B500AF06F0ECFEA9
:1034000002210248FFF7C4FE00BF80BD000C005837
:1034100080B582B000AF786008210C48FFF7D5FE78
:103420000346002B07D00A4A7B681360082107482F
:10343000FFF777FE06E07B68984708210348FFF70F
:10344000B5FE00BF0837BD4680BD00BF000C005868
:103450001005002080B500AF08210648FFF774FE74
:10346000054B1B68984708210248FFF79FFE00BFE5
:1034700080BD00BF000C00581005002080B500AFD3
:1034800008210248FFF772FE00BF80BD000C005803
:1034900080B500AF06F048FF08210248FFF778FE2C
:1034A00000BF80BD000C005880B485B000AF7860CC
:1034B0004FF0B043DA6C4FF0B0417B681343CB64FC
:1034C0004FF0B043DA6C7B681340FB60FB6800BFD1
:1034D0001437BD465DF8047B7047000080B588B0A6
:1034E00000AF0346FB7107F10C0300221A605A601B
:1034F0009A60DA601A610220FFF7D6FFFB79124A60
:1035000032F81330FB6001233B6100237B6102230F
:10351000BB61FB790D4A52F8233007F10C021146CA
:10352000184601F051F8FB79084A52F82300FB795C
:10353000054A32F813300022194601F0B5F900BFF0
:103540002037BD4680BD00BF80CF000808000020A6
:1035500080B582B000AF0346FB71FB79074A52F891
:103560002300FB79064A32F813300122194601F094
:103570009BF900BF0837BD4680BD00BF0800002092
:1035800080CF000880B588B000AF03460A46FB71C3
:103590001346BB7107F10C0300221A605A609A604F
:1035A000DA601A61FB79002B03D10420FFF77CFF5E
:1035B0000CE0FB79012B03D10820FFF775FF05E034
:1035C000FB79022B02D10820FFF76EFFBB79002B9D
:1035D00017D1FB79204A32F81330FB6000233B619E
:1035E00001237B610223BB61FB791C4A52F8233023
:1035F00007F10C021146184600F0E6FF0120FDF726
:10360000C1FCBB79012B23D1FB79134A32F813306B
:10361000FB6001237B614FF404133B61FB790F4A8C
:1036200052F8233007F10C021146184600F0CCFF87
:10363000FB790B4AD35C5BB200220F21184600F0E5
:1036400060FAFB79064AD35C5BB2184600F073FA65
:1036500000BF2037BD4680BD88CF00081400002081
:1036600090CF000880B400AF264B00229A60254B13
:10367000D3F88830234A43F47003C2F888304FF0FF
:10368000B0431B684FF0B04243F0010313604FF0AA
:10369000B0434FF4E0229A604FF0B0431A684FF005
:1036A000B041194B13400B604FF0B043D3F8943046
:1036B0004FF0B04223F00503C2F894304FF0B0430E
:1036C000D3F898304FF0B04223F00103C2F898309D
:1036D0004FF0B0430D4ADA604FF0B0430B4A1A6125
:1036E0004FF0B0431B684FF0B04223F480231360C7
:1036F0004FF0B04300229A6100BFBD465DF8047BE5
:10370000704700BF00ED00E0FBFEF6FA0010042257
:1037100080B400AF054B5B68044A43F0010353607B
:1037200000BFBD465DF8047B704700BF002004E089
:1037300080B400AF054B5B68044A43F0020353605A
:1037400000BFBD465DF8047B704700BF002004E069
:1037500080B582B000AF0023FB710C4B1B680B4A95
:1037600043F480731360032000F0C0F9002000F0E0
:103770000FF80346002B02D00123FB7101E0FEF796
:1037800000FEFB7918460837BD4680BD0040005852
:1037900080B584B000AF78600023FB73174B1B78B3
:1037A000002B24D002F00EFA0246144B1B78194667
:1037B0004FF47A73B3FBF1F3B2FBF3F3184600F066
:1037C000D6F90346002B0FD17B680F2B09D80022B6
:1037D00079684FF0FF3000F094F9094A7B68136074
:1037E00007E00123FB7304E00123FB7301E00123E5
:1037F000FB73FB7B18461037BD4680BD28000020B8
:103800002400002080B400AF064B1B781A46064BFC
:103810001B681344044A136000BFBD465DF8047B77
:10382000704700BF280000201405002080B400AFBE
:10383000034B1B681846BD465DF8047B704700BF0C
:103840001405002080B400AF034B1B681846BD462A
:103850005DF8047B704700BF2400002080B400AFF7
:10386000034B1B781846BD465DF8047B704700BFCC
:103870002800002080B500AFFFF74AFF00BF80BDE1
:1038800080B500AFFFF754FF00BF80BD80B485B0A6
:1038900000AF78607B6803F00703FB600C4BDB68CC
:1038A000BB60BA684FF6FF031340BB60FB681A02A7
:1038B000BB68134343F0BF6343F40033BB60044A67
:1038C000BB68D36000BF1437BD465DF8047B70470A
:1038D00000ED00E080B400AF044BDB681B0A03F08E
:1038E00007031846BD465DF8047B704700ED00E015
:1038F00080B483B000AF0346FB7197F90730002B0B
:103900000BDBFB7903F01F02074997F907305B09CE
:10391000012000FA02F241F8232000BF0C37BD4617
:103920005DF8047B704700BF00E100E080B483B025
:1039300000AF0346FB7197F90730002B12DBFB79D0
:1039400003F01F020A4997F907305B09012000FACA
:1039500002F2203341F82320BFF34F8F00BFBFF3A3
:103960006F8F00BF00BF0C37BD465DF8047B70470A
:1039700000E100E080B483B000AF0346FB7197F92B
:103980000730002B0CDBFB7903F01F02074997F986
:1039900007305B09012000FA02F2403341F823208E
:1039A00000BF0C37BD465DF8047B704700E100E0C6
:1039B00080B483B000AF0346FB7197F90730002B4A
:1039C0000CDBFB7903F01F02074997F907305B090D
:1039D000012000FA02F2603341F8232000BF0C37C7
:1039E000BD465DF8047B704700E100E080B483B021
:1039F00000AF03463960FB7197F90730002B0ADBF3
:103A00003B68DAB20C4997F907301201D2B20B4485
:103A100083F800230AE03B68DAB20849FB7903F037
:103A20000F03043B1201D2B20B441A7600BF0C37CD
:103A3000BD465DF8047B704700E100E000ED00E06A
:103A400080B489B000AFF860B9607A60FB6803F0B9
:103A50000703FB61FB69C3F10703042B28BF0423A1
:103A6000BB61FB690433062B02D9FB69033B00E011
:103A700000237B614FF0FF32BB6902FA03F3DA43A4
:103A8000BB681A407B699A404FF0FF317B6901FAAD
:103A900003F3D9437B680B40134318462437BD46D4
:103AA0005DF8047B7047000080B582B000AF78609D
:103AB0007B68013BB3F1807F01D301230FE00A4A09
:103AC0007B68013B53600F214FF0FF30FFF78EFF03
:103AD000054B00229A60044B07221A600023184607
:103AE0000837BD4680BD00BF10E000E080B582B061
:103AF00000AF78607868FFF7C9FE00BF0837BD46A1
:103B000080BD80B586B000AF0346B9607A60FB73B4
:103B1000FFF7E0FE78617A68B9687869FFF790FF8F
:103B2000024697F90F3011461846FFF75FFF00BFB6
:103B30001837BD4680BD80B582B000AF0346FB712B
:103B400097F907301846FFF7D3FE00BF0837BD4688
:103B500080BD80B582B000AF0346FB7197F9073096
:103B60001846FFF7E3FE00BF0837BD4680BD80B5AD
:103B700082B000AF78607868FFF796FF034618467A
:103B80000837BD4680BD80B582B000AF0346FB71EB
:103B900097F907301846FFF7EDFE00BF0837BD461E
:103BA00080BD80B582B000AF0346FB7197F9073046
:103BB0001846FFF7FDFE00BF0837BD4680BD000078
:103BC00080B584B000AF78607B68002B01D1012301
:103BD0008EE07B681B681A46474B9A420FD87B6879
:103BE0001B681A46454B1344454AA2FB03231B0995
:103BF0009A007B685A647B68424A1A640EE07B68CC
:103C00001B681A46404B13443D4AA2FB03231B0981
:103C10009A007B685A647B683C4A1A647B6802227B
:103C200083F825207B681B681B68FB60FB6823F416
:103C3000FF4323F07003FB607B689A687B68DB6856
:103C40001A437B681B691A437B685B691A437B686C
:103C50009B691A437B68DB691A437B681B6A1343C1
:103C6000FA681343FB607B681B68FA681A6078681F
:103C700000F074FA7B689B68B3F5804F02D17B68D3
:103C800000225A607B685A687B689B6C02F03F0296
:103C90001A607B68DB6C7A68126D5A607B685B68BF
:103CA000002B10D07B685B68042B0CD8786800F080
:103CB00093FA7B685B6D00221A607B689B6D7A6863
:103CC000D26D5A6008E07B6800225A657B6800224A
:103CD0009A657B680022DA657B680022DA637B687C
:103CE000012283F825207B68002283F8242000230A
:103CF00018461037BD4680BD07040240F8FFFDBFDF
:103D0000CDCCCCCC00000240F8FBFDBF000402404B
:103D100080B586B000AFF860B9607A603B60002380
:103D2000FB75FB6893F82430012B01D1022366E078
:103D3000FB68012283F82420FB6893F82530DBB26E
:103D4000012B55D1FB68022283F82520FB68002255
:103D5000DA63FB681B681A68FB681B6822F00102C3
:103D60001A603B687A68B968F86800F0B9F9FB68CE
:103D70001B6B002B08D0FB681B681A68FB681B686C
:103D800042F00E021A600FE0FB681B681A68FB68BD
:103D90001B6822F004021A60FB681B681A68FB6843
:103DA0001B6842F00A021A60FB689B6C1B6803F4F4
:103DB0008033002B07D0FB689B6C1A68FB689B6CF8
:103DC00042F480721A60FB685B6D002B07D0FB68C1
:103DD0005B6D1A68FB685B6D42F480721A60FB6869
:103DE0001B681A68FB681B6842F001021A6005E054
:103DF000FB68002283F824200223FB75FB7D184614
:103E00001837BD4680BD80B483B000AF78607B6852
:103E1000002B01D101234FE07B6893F82530DBB202
:103E2000022B08D07B680422DA637B68002283F8C7
:103E30002420012340E07B681B681A687B681B68AC
:103E400022F00E021A607B689B6C1A687B689B6C80
:103E500022F480721A607B681B681A687B681B6892
:103E600022F001021A607B685B6C03F01C027B6825
:103E70001B6C012101FA02F25A607B68DB6C7A68E4
:103E8000126D5A607B685B6D002B0CD07B685B6D9C
:103E90001A687B685B6D22F480721A607B689B6D88
:103EA0007A68D26D5A607B68012283F825207B688E
:103EB000002283F82420002318460C37BD465DF805
:103EC000047B704780B584B000AF78600023FB733B
:103ED0007B6893F82530DBB2022B05D07B68042287
:103EE000DA630123FB7347E07B681B681A687B6811
:103EF0001B6822F00E021A607B681B681A687B68D8
:103F00001B6822F001021A607B689B6C1A687B6850
:103F10009B6C22F480721A607B685B6C03F01C025D
:103F20007B681B6C012101FA02F25A607B68DB6C32
:103F30007A68126D5A607B685B6D002B0CD07B68D1
:103F40005B6D1A687B685B6D22F480721A607B6817
:103F50009B6D7A68D26D5A607B68012283F82520B8
:103F60007B68002283F824207B689B6B002B03D0A6
:103F70007B689B6B78689847FB7B18461037BD467B
:103F800080BD80B584B000AF78607B681B6C1B6817
:103F9000FB607B681B681B68BB607B685B6C03F025
:103FA0001C0304229A40FB681340002B26D0BB68F8
:103FB00003F00403002B21D07B681B681B6803F00F
:103FC0002003002B07D17B681B681A687B681B687D
:103FD00022F004021A607B685B6C03F01C027B68B1
:103FE0001B6C042101FA02F25A607B681B6B002BE8
:103FF00071D07B681B6B786898476CE07B685B6C62
:1040000003F01C0302229A40FB681340002B2ED0C1
:10401000BB6803F00203002B29D07B681B681B6878
:1040200003F02003002B0BD17B681B681A687B68A8
:104030001B6822F00A021A607B68012283F825209F
:104040007B685B6C03F01C027B681B6C022101FA2D
:1040500002F25A607B68002283F824207B68DB6AC6
:10406000002B38D07B68DB6A7868984733E07B6840
:104070005B6C03F01C0308229A40FB681340002B82
:104080002AD0BB6803F00803002B25D07B681B688F
:104090001A687B681B6822F00E021A607B685B6CF2
:1040A00003F01C027B681B6C012101FA02F25A60CA
:1040B0007B680122DA637B68012283F825207B6814
:1040C000002283F824207B685B6B002B04D07B6884
:1040D0005B6B7868984700BF00BF1037BD4680BD56
:1040E00080B485B000AFF860B9607A603B60FB686F
:1040F000DB6CFA68126D5A60FB685B6D002B04D0B4
:10410000FB689B6DFA68D26D5A60FB685B6C03F0CC
:104110001C02FB681B6C012101FA02F25A60FB6869
:104120001B683A685A60FB689B68102B08D1FB68D3
:104130001B687A689A60FB681B68BA68DA6007E0F7
:10414000FB681B68BA689A60FB681B687A68DA606B
:1041500000BF1437BD465DF8047B704780B485B05E
:1041600000AF78607B681B681A46174B9A420AD8E2
:104170007B685B6C9B089B0003F1804303F5023373
:104180007A68936407E07B685B6C9B089A000F4B2E
:1041900013447A6893647B681B68DBB2083B0C4A63
:1041A000A2FB03231B09FB607B680A4ADA64FB68F5
:1041B00003F01F0301229A407B681A6500BF143781
:1041C000BD465DF8047B7047070402401C080240AE
:1041D000CDCCCCCC8008024080B485B000AF7860F4
:1041E0007B685B6803F03F03FB60FA680B4B13448A
:1041F0009B001A467B685A657B68094A9A65FB688A
:10420000013B03F0030301229A407B68DA6500BF9B
:104210001437BD465DF8047B704700BF3F82001035
:104220004009024080B483B000AF786039607B6899
:1042300093F82530DBB2012B2BD17B6893F8243027
:10424000012B01D1022325E07B68012283F8242081
:104250007B689B6C1A68124B13403A6811683A6885
:10426000D268013AD20411433A68526811433A685D
:10427000127A120411433A68527A520211437A6850
:10428000926C0B4313607B68002283F82420002388
:1042900000E0012318460C37BD465DF8047B7047EB
:1042A000FFFD00E080B487B000AF78607B681B68DA
:1042B0001B0C03F001037B617B681B6803F01F0389
:1042C000012202FA03F33B617B695B0103F1B04316
:1042D00003F60803FB60FB683A691A6000BF1C37ED
:1042E000BD465DF8047B704780B483B000AF002307
:1042F000FB710B4B5B69002B0BDA094B094A9A6087
:10430000074B094A9A60064B5B69002B01DA0123CF
:10431000FB71FB7918460C37BD465DF8047B70478E
:104320000040005823016745AB89EFCD80B483B0CE
:1043300000AF0023FB71094B5B69084A43F000435F
:104340005361064B5B69002B01DB0123FB71FB7999
:1043500018460C37BD465DF8047B70470040005896
:1043600080B584B000AF7860FFF760FAB86009E00C
:10437000FFF75CFA0246BB68D31A7A689A4201D802
:10438000032354E02C4B1B6903F48033B3F5803FC7
:10439000EED0294B1B69FB60FB6803F00103002B87
:1043A00002D0254B01221A61FB6803F40043002B65
:1043B00007D0214B4FF400421A61FB6823F40043FD
:1043C000FB60FA684CF2FA331340FB60FB6803F0C1
:1043D0004043002B07D0184B9A69FB6803F0404319
:1043E000154913438B61FB6823F04043002B04D035
:1043F000114AFB6823F040431361FB68002B0ED089
:104400000E4AFB685360012311E0FFF70FFA0246E2
:10441000BB68D31A7A689A4201D8032307E0064B97
:104420001B6903F48023B3F5802FEED000231846D8
:104430001037BD4680BD00BF004000581805002061
:1044400080B584B000AF78603960244B1B78012BB5
:1044500001D102233DE0214B01221A701F4B0022A3
:104460005A604FF47A70FFF77BFF0346FB73FB7BC8
:10447000002B2AD17B681B68022B24D13B684FF0AC
:10448000FF321A607B685B68BB6012E0B86800F0BE
:1044900027F84FF47A70FFF763FF0346FB73FB7B4B
:1044A000002B03D03B68BA681A600AE0BB6801338E
:1044B000BB607B685A687B689B681344BA689A4201
:1044C000E4D300F06FF800F025F8044B00221A70D6
:1044D000FB7B18461037BD4680BD00BF1805002085
:1044E00080B483B000AF7860094B5B6923F4FF624E
:1044F0007B68DB001343064A43F4803343F0020336
:10450000536100BF0C37BD465DF8047B704700BFA8
:104510000040005880B400AF214B1B6803F40073C7
:10452000B3F5007F17D11E4B1B681D4A23F400739F
:1045300013601B4B1B681A4A43F400631360184B4B
:104540001B68174A23F400631360154B1B68144A59
:1045500043F400731360124B1B6803F48063B3F5DC
:10456000806F17D10E4B1B680D4A23F480631360D4
:104570000B4B1B680A4A43F480531360084B1B68BB
:10458000074A23F480531360054B1B68044A43F425
:104590008063136000BFBD465DF8047B704700BFB9
:1045A0000040005880B400AF064B5B69054A23F415
:1045B000FF6323F00203536100BFBD465DF8047B37
:1045C000704700BF0040005880B487B000AF7860EB
:1045D000396000237B614CE13B681A6801217B69EB
:1045E00001FA03F31340FB60FB68002B00F03E81EF
:1045F0003B685B6803F00303012B05D03B685B68F5
:1046000003F00303022B30D17B689B683B617B691D
:104610005B00032202FA03F3DB433A6913403B6178
:104620003B68DA687B695B0002FA03F33A6913437B
:104630003B617B683A699A607B685B683B610122F9
:104640007B6902FA03F3DB433A6913403B613B6841
:104650005B681B0903F001027B6902FA03F33A6904
:1046600013433B617B683A695A603B685B6803F0BF
:104670000303032B17D07B68DB683B617B695B001E
:10468000032202FA03F3DB433A6913403B613B68C0
:104690009A687B695B0002FA03F33A6913433B6152
:1046A0007B683A69DA603B685B6803F00303022BBE
:1046B00023D17B69DA087B68083253F822303B61EA
:1046C0007B6903F007039B000F2202FA03F3DB432D
:1046D0003A6913403B613B681A697B6903F0070341
:1046E0009B0002FA03F33A6913433B617B69DA08E2
:1046F0007B680832396943F822107B681B683B618C
:104700007B695B00032202FA03F3DB433A6913403F
:104710003B613B685B6803F003027B695B0002FA64
:1047200003F33A6913433B617B683A691A603B685B
:104730005B6803F44033002B00F09880544A7B6997
:104740009B08023352F823303B617B6903F003037B
:104750009B000F2202FA03F3DB433A6913403B61EB
:104760007B68B3F1904F19D07B684A4A934213D0CB
:104770007B68494A93420DD07B68484A934207D0F0
:104780007B68474A934201D1042308E0072306E0EF
:10479000032304E0022302E0012300E000237A69FE
:1047A00002F00302920093403A6913433B61384997
:1047B0007B699B0802333A6941F82320394B1B6817
:1047C0003B61FB68DB433A6913403B613B685B68D4
:1047D00003F48013002B03D03A69FB6813433B6159
:1047E000304A3B6913602F4B5B683B61FB68DB43DE
:1047F0003A6913403B613B685B6803F40013002B8C
:1048000003D03A69FB6813433B61264A3B69536016
:10481000244BD3F880303B61FB68DB433A6913409B
:104820003B613B685B6803F48033002B03D03A693B
:10483000FB6813433B611B4A3B69C2F88030194B4C
:10484000D3F884303B61FB68DB433A6913403B613A
:104850003B685B6803F40033002B03D03A69FB68C4
:1048600013433B610F4A3B69C2F884307B690133D3
:104870007B613B681A687B6922FA03F3002B7FF4A3
:10488000ABAE00BF00BF1C37BD465DF8047B704770
:10489000000001400004004800080048000C0048E7
:1048A000001000480008005880B483B000AF786062
:1048B0000B467B8013467B707B78002B03D07A8875
:1048C0007B689A6102E07A887B689A6200BF0C3745
:1048D000BD465DF8047B704780B582B000AF0346EB
:1048E000FB80084BDA68FB881340002B06D0054A92
:1048F000FB88D360FB881846FCF7A7FB00BF08378E
:10490000BD4680BD0008005880B582B000AF0A4B9C
:10491000DB687B60084B1A687B68DB430649134001
:104920000B60054A7B685360786800F007F800BFA9
:104930000837BD4680BD00BF0015005880B483B065
:1049400000AF786000BF0C37BD465DF8047B704750
:1049500080B584B000AF78600023FB737B68002BC8
:104960001ED0134BBB607B6893F83830DBB2002B52
:1049700002D17868FDF716FDB86800F05BF8BB68F7
:104980001B6843F00112BB681A60786800F02CF8CD
:104990007B6800225A637B68012283F8382001E09B
:1049A0000123FB73FB7B18461037BD4680BD00BF5B
:1049B000000C005880B485B000AFF860B9601346B1
:1049C000FB7100BF1437BD465DF8047B704780B4AF
:1049D00085B000AFF860B9601346FB7100BF1437B3
:1049E000BD465DF8047B704780B485B000AF786049
:1049F0000023FB600FE07A68FB689B0013440B4ABE
:104A00005A607A68FB6806339B001344084A5A6070
:104A1000FB680133FB60FB68052BECD900BF00BFCE
:104A20001437BD465DF8047B704700BFB5490008E8
:104A3000CF49000880B483B000AF78607B68002263
:104A40001A607B684FF03F125A607B683F229A6081
:104A500000BF0C37BD465DF8047B704780B400AFE3
:104A6000054B1B68044A43F48073136000BFBD46C6
:104A70005DF8047B704700BF0004005880B400AFAD
:104A8000044B1B6803F4C0631846BD465DF8047B05
:104A9000704700BF0004005880B400AF4FF0B0432F
:104AA0001B6803F48013B3F5801F01D1012300E0DC
:104AB00000231846BD465DF8047B704780B400AF04
:104AC0004FF0B0431B684FF0B04243F480331360A3
:104AD00000BFBD465DF8047B704780B400AF4FF067
:104AE000B0431B684FF0B04223F48033136000BF23
:104AF000BD465DF8047B704780B400AF4FF0B04313
:104B00001B6803F40033B3F5003F01D1012300E03B
:104B100000231846BD465DF8047B704780B400AFA3
:104B20004FF0B0431B684FF0B04243F48073136002
:104B300000BFBD465DF8047B704780B400AF4FF006
:104B4000B0431B684FF0B04223F48073136000BF82
:104B5000BD465DF8047B704780B400AF4FF0B043B2
:104B60001B6803F48063B3F5806F01D1012300E07B
:104B700000231846BD465DF8047B704780B483B0BF
:104B800000AF78604FF0B0435B6823F0FE427B6873
:104B90001B064FF0B04113434B6000BF0C37BD46BE
:104BA0005DF8047B704780B400AF4FF0B043D3F89A
:104BB00098304FF0B04243F00103C2F8983000BF84
:104BC000BD465DF8047B704780B400AF4FF0B04342
:104BD000D3F898304FF0B04223F00103C2F8983078
:104BE00000BFBD465DF8047B704780B400AF4FF056
:104BF000B043D3F8983003F00203022B01D1012314
:104C000000E000231846BD465DF8047B704780B481
:104C100000AF4FF0B043D3F890304FF0B04243F0C4
:104C20000103C2F8903000BFBD465DF8047B7047B9
:104C300080B400AF4FF0B043D3F890304FF0B042A3
:104C400023F00103C2F8903000BFBD465DF8047B3D
:104C5000704780B400AF4FF0B043D3F890304FF0BE
:104C6000B04243F00403C2F8903000BFBD465DF887
:104C7000047B704780B400AF4FF0B043D3F890305E
:104C80004FF0B04223F00403C2F8903000BFBD469D
:104C90005DF8047B704780B400AF4FF0B043D3F8A9
:104CA000903003F00203022B01D1012300E0002326
:104CB0001846BD465DF8047B704780B400AF4FF0E6
:104CC000B043D3F894304FF0B04243F00103C2F840
:104CD000943000BFBD465DF8047B704780B400AFE0
:104CE0004FF0B043D3F894304FF0B04223F00103BB
:104CF000C2F8943000BFBD465DF8047B704780B4B5
:104D000000AF4FF0B043D3F8943003F00203022B0E
:104D100001D1012300E000231846BD465DF8047B65
:104D2000704780B400AF4FF0B043D3F894304FF0E9
:104D3000B04243F00403C2F8943000BFBD465DF8B2
:104D4000047B704780B400AF4FF0B043D3F8943089
:104D50004FF0B04223F00403C2F8943000BFBD46C8
:104D60005DF8047B704780B400AF4FF0B043D3F8D8
:104D7000943003F00803082B01D1012300E0002345
:104D80001846BD465DF8047B704780B483B000AF21
:104D900078604FF0B043D3F8943023F470627B68AE
:104DA0001B024FF0B0411343C1F8943000BF0C37E1
:104DB000BD465DF8047B704780B400AF4FF0B04350
:104DC0001B684FF0B04243F00103136000BFBD46C3
:104DD0005DF8047B704780B400AF4FF0B0431B68B0
:104DE0004FF0B04223F00103136000BFBD465DF8F1
:104DF000047B704780B400AF4FF0B0431B6803F0F2
:104E00000203022B01D1012300E000231846BD4616
:104E10005DF8047B704780B483B000AF78604FF0DA
:104E2000B0431B6823F0F0024FF0B0417B6813439E
:104E30000B6000BF0C37BD465DF8047B704780B443
:104E400083B000AF4FF0B0431B6803F0F0037B600A
:104E50007B68B02B01D9B0237B607B6818460C3788
:104E6000BD465DF8047B704780B483B000AF7860C6
:104E70004FF0B0435B6823F47F427B681B024FF026
:104E8000B04113434B6000BF0C37BD465DF8047B57
:104E9000704780B483B000AF78604FF0B0439B6838
:104EA00023F003024FF0B0417B6813438B6000BFD7
:104EB0000C37BD465DF8047B704780B400AF4FF0FF
:104EC000B0439B6803F00C031846BD465DF8047BB5
:104ED000704780B483B000AF78604FF0B0439B68F8
:104EE00023F0F0024FF0B0417B6813438B6000BFAA
:104EF0000C37BD465DF8047B704780B483B000AFCB
:104F000078604FF0B043D3F8083123F0F0024FF04F
:104F1000B0417B681343C1F8083100BF0C37BD4670
:104F20005DF8047B704780B483B000AF78604FF0C9
:104F3000B043D3F8083123F00F027B681B094FF010
:104F4000B0411343C1F8083100BF0C37BD465DF8CE
:104F5000047B704780B483B000AF78604FF0B043FB
:104F60009B6823F4E0624FF0B0417B6813438B6091
:104F700000BF0C37BD465DF8047B704780B483B03A
:104F800000AF78604FF0B0439B6823F460524FF05D
:104F9000B0417B6813438B6000BF0C37BD465DF8A2
:104FA000047B704780B400AF4FF0B0439B6803F0C0
:104FB000F0031846BD465DF8047B704780B400AF2F
:104FC0004FF0B043D3F808311B0103F0F00318464B
:104FD000BD465DF8047B704780B400AF4FF0B0432E
:104FE0009B6803F4E0631846BD465DF8047B704798
:104FF00080B400AF4FF0B0439B6803F46053184691
:10500000BD465DF8047B704780B400AF4FF0B043FD
:105010001B684FF0B04243F08073136000BFBD4681
:105020005DF8047B704780B400AF4FF0B0431B685D
:105030004FF0B04223F08073136000BFBD465DF8AF
:10504000047B704780B400AF4FF0B0431B6803F09F
:105050000073B3F1007F01D1012300E00023184663
:10506000BD465DF8047B704780B400AF4FF0B0439D
:10507000DB681B0A03F07F031846BD465DF8047B1E
:10508000704780B400AF4FF0B043DB6803F060437B
:105090001846BD465DF8047B704780B400AF4FF002
:1050A000B043DB6803F070031846BD465DF8047B2F
:1050B000704780B400AF4FF0B043DB6803F00303E8
:1050C0001846BD465DF8047B704780B400AF4FF0D2
:1050D000B0439B6803F48033B3F5803F01D10123D3
:1050E00000E000231846BD465DF8047B704780B49D
:1050F00000AF4FF0B043D3F8083103F40033B3F5F9
:10510000003F01D1012300E000231846BD465DF8B1
:10511000047B704780B400AF4FF0B043D3F8083140
:1051200003F48033B3F5803F01D1012300E0002375
:105130001846BD465DF8047B704780B400AF4FF061
:10514000B0439B6803F40033B3F5003F01D1012362
:1051500000E000231846BD465DF8047B704780B42C
:1051600000AF4FF0B0439B6803F48023B3F5802F6A
:1051700001D1012300E000231846BD465DF8047B01
:105180007047000090B58DB000AF78607B68002B51
:1051900001D1012363E37B681B6803F02003002B2C
:1051A00000F08D80FFF789FEF862FFF782FFB8629A
:1051B000FB6A002B05D0FB6A0C2B47D1BB6A012B85
:1051C00044D17B68DB69002B01D1012347E37B6875
:1051D0005C6AFFF734FE03469C4214D97B685B6A25
:1051E000184600F02FFD0346002B01D0012336E3C3
:1051F0007B685B6A1846FFF70EFE7B681B6A1846E1
:10520000FFF732FE13E07B685B6A1846FFF703FE88
:105210007B681B6A1846FFF727FE7B685B6A1846A7
:1052200000F010FD0346002B01D0012317E300F02E
:10523000C9FC0346A44A1360A44B1B681846FEF73A
:10524000A7FA0346002B39D0012308E37B68DB690A
:10525000002B1ED0FFF7B0FDFEF7E8FA786208E0F9
:10526000FEF7E4FA02467B6AD31A022B01D9032324
:10527000F5E2FFF7BFFD0346002BF1D07B685B6AC8
:105280001846FFF7C8FD7B681B6A1846FFF7ECFD60
:1052900015E0FFF7A0FDFEF7C9FA786208E0FEF717
:1052A000C5FA02467B6AD31A022B01D90323D6E240
:1052B000FFF7A0FD0346002BF1D100E000BF7B68A3
:1052C0001B6803F00103002B47D0FFF7F6FD38629F
:1052D000FFF7EFFEF8613B6A082B05D03B6A0C2B09
:1052E00008D1FB69032B05D17B685B68002B34D1A7
:1052F0000123B4E27B685B68B3F5803F02D1FFF71E
:10530000DDFB01E0FFF7E9FB7B685B68002B12D057
:10531000FEF78CFA786208E0FEF788FA02467B6AAC
:10532000D31A642B01D9032399E2FFF7E5FB034667
:10533000002BF1D011E0FEF779FA786208E0FEF771
:1053400075FA02467B6AD31A642B01D9032386E2DD
:10535000FFF7D2FB0346002BF1D17B681B6803F0FB
:105360000203002B4CD0FFF7A8FDB861FFF7A1FEA8
:105370007861BB69042B05D0BB690C2B0ED17B690E
:10538000022B0BD17B68DB68002B01D1012366E285
:105390007B681B691846FFF7F1FB31E07B68DB682F
:1053A000002B19D0FFF7BAFBFEF740FA786208E04D
:1053B000FEF73CFA02467B6AD31A022B01D903237B
:1053C0004DE2FFF7C9FB0346002BF1D07B681B6958
:1053D0001846FFF7D3FB13E0FFF7AFFBFEF726FA03
:1053E000786208E0FEF722FA02467B6AD31A022BA3
:1053F00001D9032333E2FFF7AFFB0346002BF1D1C2
:105400007B681B6803F00803002B06D17B681B68D0
:1054100003F01003002B00F0A3807B685B69002B76
:1054200076D07B681B6803F01003002B46D0FFF793
:1054300066FC0346002B13D1FFF73FFCFEF7F6F99D
:10544000786208E0FEF7F2F902467B6AD31A022B73
:1054500001D9032303E2FFF752FC0346002BF1D0EE
:10546000FFF75FFCFEF7E2F9786208E0FEF7DEF98D
:1054700002467B6AD31A032B01D90323EFE1FFF71E
:1054800072FC0346002BF1D07B689B691846FFF73E
:105490007CFCFFF723FCFEF7C9F9786208E0FEF711
:1054A000C5F902467B6AD31A022B01D90323D6E140
:1054B000FFF725FC0346002BF1D151E0FFF7FDFB80
:1054C000FEF7B4F978620CE02000002024000020F0
:1054D000FEF7ACF902467B6AD31A022B01D90323EB
:1054E000BDE1FFF70CFC0346002BF1D0FFF72AFCCF
:1054F00008E0FEF79BF902467B6AD31A032B01D919
:105500000323ACE1FFF72FFC0346002BF1D127E08A
:10551000FFF718FCFEF78AF9786208E0FEF786F9D3
:1055200002467B6AD31A032B01D9032397E1FFF7C5
:105530001AFC0346002BF1D1FFF7D0FBFEF776F9FA
:10554000786208E0FEF772F902467B6AD31A022BF2
:1055500001D9032383E1FFF7D2FB0346002BF1D1EE
:105560007B681B6803F00403002B5BD0A74B1B6810
:1055700003F48073002B14D1FFF770FAFEF756F98D
:10558000786208E0FEF752F902467B6AD31A022BD2
:1055900001D9032363E19D4B1B6803F48073002B47
:1055A000F0D07B689B68012B02D1FFF730FB0CE049
:1055B0007B689B68052B04D1FFF74BFBFFF727FBAC
:1055C00003E0FFF735FBFFF755FB7B689B68002B7B
:1055D00014D0FEF72BF978620AE0FEF727F90246AD
:1055E0007B6AD31A41F28832934201D9032336E110
:1055F000FFF751FB0346002BEFD013E0FEF716F93F
:1056000078620AE0FEF712F902467B6AD31A41F289
:105610008832934201D9032321E1FFF73CFB034683
:10562000002BEFD17B681B6803F04003002B2CD0CC
:105630007B689B6A002B14D0FFF7B5FAFEF7F6F8EB
:10564000786208E0FEF7F2F802467B6AD31A022B72
:1056500001D9032303E1FFF7C8FA0346002BF1D079
:1056600013E0FFF7B1FAFEF7E1F8786208E0FEF721
:10567000DDF802467B6AD31A022B01D90323EEE040
:10568000FFF7B3FA0346002BF1D17B68DB6A002BEE
:1056900000F0E480FFF711FC38614FF0B043DB68A5
:1056A000FB607B68DB6A022B40F0B480FB6803F090
:1056B00003027B681B6B9A4223D1FB6803F07002E4
:1056C0007B685B6B9A421CD1FB681B0A03F07F026C
:1056D0007B689B6B9A4214D1FB6803F478127B6859
:1056E000DB6B9A420DD1FB6803F060627B681B6C38
:1056F0009A4206D1FB6803F060427B685B6C9A4279
:105700005DD03B690C2B58D04FF0B0431B6803F0C1
:105710008063002B01D00123A1E0FFF784FCFEF79A
:1057200085F8786208E0FEF781F802467B6AD31AB2
:10573000022B01D9032392E04FF0B0431B6803F022
:105740000073002BEFD14FF0B043DA68304B1340B9
:105750007A68116B7A68526B11437A68926B120205
:1057600011437A68D26B11437A68126C11437A68DC
:10577000526C0A434FF0B0411343CB60FFF744FC37
:105780004FF0B043DB684FF0B04243F08053D3603A
:10579000FEF74CF8786208E0FEF748F802467B6AAC
:1057A000D31A022B01D9032359E04FF0B0431B68F1
:1057B00003F00073002BEFD050E001234FE04FF0D7
:1057C000B0431B6803F00073002B47D1FFF71CFCAC
:1057D0004FF0B043DB684FF0B04243F08053D360EA
:1057E000FEF724F8786208E0FEF720F802467B6AAC
:1057F000D31A022B01D9032331E04FF0B0431B68C9
:1058000003F00073002BEFD028E000BF0004005825
:105810008C80C1113B690C2B1ED0FFF704FCFEF7F6
:1058200005F8786208E0FEF701F802467B6AD31AB1
:10583000022B01D9032312E04FF0B0431B6803F0A1
:105840000073002BEFD14FF0B043DA684FF0B04156
:10585000054B1340CB6001E0012300E00023184614
:105860003437BD4690BD00BFFCFFFEEE80B584B06E
:1058700000AF786039607B68002B01D101232DE1F6
:10588000984B1B6803F007033A689A421BD9954B63
:105890001B6823F0070293493B6813430B60FDF735
:1058A000C5FFF86008E0FDF7C1FF0246FB68D31AA8
:1058B000022B01D9032311E18A4B1B6803F0070374
:1058C0003A689A42EFD17B681B6803F00203002B11
:1058D00016D07B689B681846FFF7FBFAFDF7A6FF1A
:1058E000F86008E0FDF7A2FF0246FB68D31A022B1E
:1058F00001D90323F2E0FFF7E8FB0346002BF1D0C8
:105900007B681B6803F02003002B16D07B685B6963
:105910001846FFF7F2FAFDF789FFF86008E0FDF797
:1059200085FF0246FB68D31A022B01D90323D5E079
:10593000FFF7DDFB0346002BF1D07B681B6803F00B
:105940004003002B16D07B689B691846FFF7EBFAE3
:10595000FDF76CFFF86008E0FDF768FF0246FB68A2
:10596000D31A022B01D90323B8E0FFF7D3FB034678
:10597000002BF1D07B681B6803F00403002B16D0CA
:105980007B68DB681846FFF7E5FAFDF74FFFF86024
:1059900008E0FDF74BFF0246FB68D31A022B01D942
:1059A00003239BE0FFF7C9FB0346002BF1D07B6884
:1059B0001B6803F00803002B17D07B681B69DB0012
:1059C0001846FFF7DBFAFDF731FFF86008E0FDF756
:1059D0002DFF0246FB68D31A022B01D903237DE079
:1059E000FFF7BDFB0346002BF1D07B681B6803F07B
:1059F0000103002B43D07B685B68022B06D1FFF7C5
:105A00007BF80346002B1ED1012367E07B685B68AF
:105A1000032B06D1FFF716FB0346002B13D10123FE
:105A20005CE07B685B68002B06D1FFF7E3F9034677
:105A3000002B08D1012351E0FFF78EF80346002B1D
:105A400001D101234AE07B685B681846FFF721FA21
:105A5000FDF7ECFEF8600AE0FDF7E8FE0246FB68A1
:105A6000D31A41F28832934201D9032336E0FFF77B
:105A700024FA02467B685B689B009A42ECD1194B82
:105A80001B6803F007033A689A421BD2154B1B6848
:105A900023F0070213493B6813430B60FDF7C6FE72
:105AA000F86008E0FDF7C2FE0246FB68D31A022B3D
:105AB00001D9032312E00B4B1B6803F007033A687C
:105AC0009A42EFD100F07EF80346074A1360FDF7D3
:105AD000B9FE03461846FDF75BFE0346184610372D
